:100000000EC015C014C013C012C011C010C00FC064
:1000100029C00DC00CC00BC00AC009C008C0112403
:100020001FBECFE5D2E0DEBFCDBF1AD0A4C0E8CF5F
:1000300087B3836187BB8CB580668CBD80B78166D2
:1000400080BF8AB583688ABD83B7816083BF87B16B
:10005000836087B986B18C6A86B97894369A089598
:10006000E7DFFFCF1F920F920FB60F9211242F934D
:100070003F935F936F937F938F939F9384B195B1D9
:1000800063E070E066D09C01369527952F3F3105DF
:1000900009F020F48FEF89BD2EBD0CC0C90180503E
:1000A00091408F3F910509F038F4822F809589BDEA
:1000B0008FEF8EBD1BBC2EC0C901805092408F3F78
:1000C000910509F028F419BC8FEF8EBD2BBD22C01D
:1000D000C901805093408F3F910509F028F419BC65
:1000E000822F80958EBD09C0C901805094408F3FFA
:1000F000910509F020F429BD1EBC8FEF0AC0C9018B
:10010000805095408F3F910509F020F48FEF89BD15
:100110002EBD8BBD80E090E0000001968A309105F5
:10012000D9F79F918F917F916F915F913F912F911F
:100130000F900FBE0F901F90189505C06150704032
:100140008040904000006115710581059105B1F76F
:1001500008955527002480FF02C0060E571F660F22
:10016000771F6115710521F096958795009799F78E
:0A017000952F802D0895F894FFCF1D
:00000001FF
