:100000000EC01DC01CC01BC09BC019C018C017C0AB
:100010002CC015C014C013C012C011C010C01124D0
:100020001FBECFE5D2E0DEBFCDBF10E0A0E6B0E05E
:1000300001C01D92A936B107E1F71BD185C1E0CF00
:1000400087B3836187BB8CB580668CBD80B78166C2
:1000500080BF8AB583688ABD83B7816083BF789487
:1000600089B7846089BFC29A08951F920F920FB614
:100070000F9211242F933F935F936F937F938F93EE
:100080009F9384B195B163E070E04CD19C013695AB
:1000900027952F3F310509F020F48FEF89BD2EBD44
:1000A0000CC0C901805091408F3F910509F038F490
:1000B000822F809589BD8FEF8EBD1BBC2EC0C901DC
:1000C000805092408F3F910509F028F419BC8FEFC2
:1000D0008EBD2BBD22C0C901805093408F3F91053A
:1000E00009F028F419BC822F80958EBD09C0C90182
:1000F000805094408F3F910509F020F429BD1EBC2B
:100100008FEF0AC0C901805095408F3F910509F0DB
:1001100020F48FEF89BD2EBD8BBD80E090E0000004
:1001200001968A309105D9F79F918F917F916F91B8
:100130005F913F912F910F900FBE0F901F901895D8
:100140001F920F920FB60F9211242F933F938F930C
:100150009F93AF93BF938091640090916500A091AD
:100160006600B091670030916800232F205E2D3724
:1001700020F02D570196A11DB11D2093680080939A
:10018000640090936500A0936600B093670080912F
:10019000600090916100A0916200B09163000196AF
:1001A000A11DB11D8093600090936100A093620037
:1001B000B0936300BF91AF919F918F913F912F9129
:1001C0000F900FBE0F901F9018958FB7F894209145
:1001D00064003091650040916600509167008FBFC8
:1001E000B901CA0108959C018F3F910509F020F4DF
:1001F0008FEF89BD2EBD0BC0805091408F3F910580
:1002000009F038F4822F809589BD8FEF8EBD1BBC1D
:100210000895C901805092408F3F910509F028F45C
:1002200019BC8FEF8EBD2BBD0895C901805093403E
:100230008F3F910509F028F419BC822F80958EBD5F
:1002400009C0C901805094408F3F910509F028F4FE
:1002500029BD1EBC8FEF8BBD0895C901805095400C
:100260008F3F910509F020F48FEF89BD2EBD8BBD26
:1002700008951F93CF93DF9380E090E0B4DFE0DE3A
:1002800080E040E050E060E070E0C0E0D0E001C01D
:10029000812F16B3E12FF0E090E08E279F2782FF99
:1002A0000BC08FB7F8944091640050916500609145
:1002B0006600709167008FBF2FB7F894809164003B
:1002C00090916500A0916600B09167002FBF841BDC
:1002D000950BA60BB70B0B97A105B105C8F2E2FD74
:1002E000D7CF219686E0C030D80710F0C0E0D0E02C
:1002F000CE0179DF8FB7F89440916400509165008A
:1003000060916600709167008FBFC2CF05C06150D9
:100310007040804090400000611571058105910595
:10032000B1F708955527002480FF02C0060E571F1D
:10033000660F771F6115710521F0969587950097D7
:0C03400099F7952F802D0895F894FFCFB9
:00000001FF
